BL51 BANKED LINKER/LOCATER V6.22                                                        04/22/2015  23:15:40  PAGE 1


BL51 BANKED LINKER/LOCATER V6.22, INVOKED BY:
C:\KEIL\C51\BIN\BL51.EXE STARTUP.obj, test1.obj TO test1


MEMORY MODEL: SMALL


INPUT MODULES INCLUDED:
  STARTUP.obj (?C_STARTUP)
  test1.obj (TEST1)
  C:\KEIL\C51\LIB\C51S.LIB (?C_INIT)
  C:\KEIL\C51\LIB\C51S.LIB (?C?CLDPTR)
  C:\KEIL\C51\LIB\C51S.LIB (?C?SLCMP)
  C:\KEIL\C51\LIB\C51S.LIB (STRLEN)
  C:\KEIL\C51\LIB\C51S.LIB (STRSTR)


LINK MAP OF MODULE:  test1 (?C_STARTUP)


            TYPE    BASE      LENGTH    RELOCATION   SEGMENT NAME
            -----------------------------------------------------

            * * * * * * *   D A T A   M E M O R Y   * * * * * * *
            REG     0000H     0008H     ABSOLUTE     "REG BANK 0"
            DATA    0008H     000CH     UNIT         ?DT?_STRSTR?STRSTR
            DATA    0014H     0006H     UNIT         ?DT?_HAND?TEST1
            DATA    001AH     0005H     UNIT         _DATA_GROUP_
            DATA    001FH     0002H     UNIT         ?DT?TEST1
            IDATA   0021H     0019H     UNIT         ?ID?TEST1
            IDATA   003AH     0001H     UNIT         ?STACK

            * * * * * * *   C O D E   M E M O R Y   * * * * * * *
            CODE    0000H     0003H     ABSOLUTE     
            CODE    0003H     0020H     UNIT         ?C_INITSEG
            CODE    0023H     0003H     ABSOLUTE     
            CODE    0026H     008CH     UNIT         ?C_C51STARTUP
            CODE    00B2H     0082H     UNIT         ?PR?_STRSTR?STRSTR
            CODE    0134H     003AH     UNIT         ?PR?_DELAYSEC?TEST1
            CODE    016EH     0036H     UNIT         ?PR?SERIAL_INTERRUPT?TEST1
            CODE    01A4H     002FH     UNIT         ?C?LIB_CODE
            CODE    01D3H     0029H     UNIT         ?PR?MAIN?TEST1
            CODE    01FCH     0027H     UNIT         ?PR?CLEAR_REC_DATA?TEST1
            CODE    0223H     0018H     UNIT         ?CO?TEST1
            CODE    023BH     0017H     UNIT         ?PR?_HAND?TEST1
            CODE    0252H     0016H     UNIT         ?PR?SERIALINTI?TEST1
            CODE    0268H     0016H     UNIT         ?PR?_UART1SENDS?TEST1
            CODE    027EH     0015H     UNIT         ?PR?_STRLEN?STRLEN
            CODE    0293H     0008H     UNIT         ?PR?_UART1SEND?TEST1



OVERLAY MAP OF MODULE:   test1 (?C_STARTUP)


SEGMENT                              DATA_GROUP 
  +--> CALLED SEGMENT              START    LENGTH
--------------------------------------------------
BL51 BANKED LINKER/LOCATER V6.22                                                      04/22/2015  23:15:40  PAGE 2


?C_C51STARTUP                      -----    -----
  +--> ?PR?MAIN?TEST1
  +--> ?C_INITSEG

?PR?MAIN?TEST1                     001AH    0001H
  +--> ?PR?SERIALINTI?TEST1
  +--> ?PR?_DELAYSEC?TEST1
  +--> ?CO?TEST1
  +--> ?PR?_UART1SENDS?TEST1

?PR?_DELAYSEC?TEST1                001BH    0004H



SYMBOL TABLE OF MODULE:  test1 (?C_STARTUP)

  VALUE           TYPE          NAME
  ----------------------------------

  -------         MODULE        ?C_STARTUP
  C:0026H         SEGMENT       ?C_C51STARTUP
  I:003AH         SEGMENT       ?STACK
  C:0000H         PUBLIC        ?C_STARTUP
  D:00E0H         SYMBOL        ACC
  D:00F0H         SYMBOL        B
  D:0083H         SYMBOL        DPH
  D:0082H         SYMBOL        DPL
  N:0000H         SYMBOL        IBPSTACK
  N:0100H         SYMBOL        IBPSTACKTOP
  N:0080H         SYMBOL        IDATALEN
  C:0029H         SYMBOL        IDATALOOP
  N:0000H         SYMBOL        PBPSTACK
  N:0100H         SYMBOL        PBPSTACKTOP
  N:0000H         SYMBOL        PDATALEN
  N:0000H         SYMBOL        PDATASTART
  N:0000H         SYMBOL        PPAGE
  N:0000H         SYMBOL        PPAGEENABLE
  D:00A0H         SYMBOL        PPAGE_SFR
  D:0081H         SYMBOL        SP
  C:0026H         SYMBOL        STARTUP1
  N:0000H         SYMBOL        XBPSTACK
  N:0000H         SYMBOL        XBPSTACKTOP
  N:0000H         SYMBOL        XDATALEN
  N:0000H         SYMBOL        XDATASTART
  C:0000H         LINE#         126
  C:0026H         LINE#         133
  C:0028H         LINE#         134
  C:0029H         LINE#         135
  C:002AH         LINE#         136
  C:002CH         LINE#         185
  C:002FH         LINE#         196
  -------         ENDMOD        ?C_STARTUP

  -------         MODULE        TEST1
  C:0000H         SYMBOL        _ICE_DUMMY_
  D:0090H         PUBLIC        P1
  B:00A8H.7       PUBLIC        EA
BL51 BANKED LINKER/LOCATER V6.22                                                      04/22/2015  23:15:40  PAGE 3


  I:0021H         PUBLIC        Buffer_Uart0_Rec
  C:0134H         PUBLIC        _DelaySec
  B:00A8H.4       PUBLIC        ES
  B:0098H.0       PUBLIC        RI
  C:023BH         PUBLIC        _hand
  B:0098H.1       PUBLIC        TI
  C:01FCH         PUBLIC        clear_rec_data
  C:01D3H         PUBLIC        main
  D:0099H         PUBLIC        SBUF
  B:0090H.4       PUBLIC        P14
  D:0089H         PUBLIC        TMOD
  C:016EH         PUBLIC        Serial_interrupt
  D:008DH         PUBLIC        TH1
  C:0268H         PUBLIC        _Uart1Sends
  B:0098H.7       PUBLIC        SM0
  B:0098H.6       PUBLIC        SM1
  D:008BH         PUBLIC        TL1
  B:0088H.6       PUBLIC        TR1
  C:0293H         PUBLIC        _Uart1Send
  B:0098H.4       PUBLIC        REN
  D:001FH         PUBLIC        rec_data_len_uart
  C:0252H         PUBLIC        SerialInti
  -------         PROC          SERIALINTI
  C:0252H         LINE#         33
  C:0252H         LINE#         34
  C:0252H         LINE#         35
  C:0255H         LINE#         41
  C:0258H         LINE#         42
  C:025BH         LINE#         45
  C:025DH         LINE#         46
  C:025FH         LINE#         47
  C:0261H         LINE#         48
  C:0263H         LINE#         49
  C:0265H         LINE#         50
  C:0267H         LINE#         51
  -------         ENDPROC       SERIALINTI
  -------         PROC          _HAND
  D:0001H         SYMBOL        data_source
  D:0017H         SYMBOL        ptr
  C:023BH         LINE#         52
  C:023BH         LINE#         53
  C:023BH         LINE#         54
  C:024CH         LINE#         55
  C:024FH         LINE#         57
  C:0251H         LINE#         58
  -------         ENDPROC       _HAND
  -------         PROC          CLEAR_REC_DATA
  -------         DO            
  D:0006H         SYMBOL        i
  D:0007H         SYMBOL        temp_len
  -------         ENDDO         
  C:01FCH         LINE#         59
  C:01FCH         LINE#         60
  C:01FCH         LINE#         62
  C:0205H         LINE#         63
  C:020BH         LINE#         64
  C:020BH         LINE#         65
BL51 BANKED LINKER/LOCATER V6.22                                                      04/22/2015  23:15:40  PAGE 4


  C:020DH         LINE#         66
  C:020DH         LINE#         67
  C:0214H         LINE#         68
  C:0214H         LINE#         69
  C:021AH         LINE#         70
  C:021DH         LINE#         71
  C:0222H         LINE#         72
  -------         ENDPROC       CLEAR_REC_DATA
  -------         PROC          SERIAL_INTERRUPT
  -------         DO            
  D:0007H         SYMBOL        temp_rec_data_uart0
  -------         ENDDO         
  C:016EH         LINE#         75
  C:0179H         LINE#         78
  C:017BH         LINE#         79
  C:017DH         LINE#         80
  C:0184H         LINE#         81
  C:018CH         LINE#         82
  C:0195H         LINE#         83
  C:0195H         LINE#         84
  C:019BH         LINE#         85
  C:019BH         LINE#         86
  -------         ENDPROC       SERIAL_INTERRUPT
  -------         PROC          _UART1SEND
  D:0007H         SYMBOL        c
  C:0293H         LINE#         87
  C:0293H         LINE#         88
  C:0293H         LINE#         89
  C:0295H         LINE#         90
  C:0298H         LINE#         91
  C:029AH         LINE#         92
  -------         ENDPROC       _UART1SEND
  -------         PROC          _UART1SENDS
  D:0001H         SYMBOL        str
  C:0268H         LINE#         94
  C:0268H         LINE#         95
  C:0268H         LINE#         96
  C:026DH         LINE#         97
  C:026DH         LINE#         98
  C:026FH         LINE#         99
  C:0272H         LINE#         100
  C:0274H         LINE#         101
  C:027BH         LINE#         102
  C:027DH         LINE#         103
  -------         ENDPROC       _UART1SENDS
  -------         PROC          _DELAYSEC
  D:001BH         SYMBOL        sec
  -------         DO            
  D:001DH         SYMBOL        i
  D:0082H         SYMBOL        j
  -------         ENDDO         
  C:0134H         LINE#         105
  C:0138H         LINE#         106
  C:0138H         LINE#         107
  C:0138H         LINE#         108
  C:0148H         LINE#         109
  C:0148H         LINE#         110
BL51 BANKED LINKER/LOCATER V6.22                                                      04/22/2015  23:15:40  PAGE 5


  C:0160H         LINE#         111
  C:0160H         LINE#         112
  C:0163H         LINE#         113
  C:016DH         LINE#         114
  -------         ENDPROC       _DELAYSEC
  -------         PROC          MAIN
  -------         DO            
  D:001AH         SYMBOL        i
  -------         ENDDO         
  C:01D3H         LINE#         115
  C:01D3H         LINE#         116
  C:01D3H         LINE#         117
  C:01D6H         LINE#         118
  C:01D9H         LINE#         119
  C:01DFH         LINE#         120
  C:01E1H         LINE#         123
  C:01EAH         LINE#         124
  C:01F1H         LINE#         125
  C:01FAH         LINE#         127
  -------         ENDPROC       MAIN
  -------         ENDMOD        TEST1

  -------         MODULE        ?C?CLDPTR
  C:01A4H         PUBLIC        ?C?CLDPTR
  -------         ENDMOD        ?C?CLDPTR

  -------         MODULE        ?C?SLCMP
  C:01BDH         PUBLIC        ?C?SLCMP
  -------         ENDMOD        ?C?SLCMP

  -------         MODULE        STRLEN
  C:027EH         PUBLIC        _STRLEN
  -------         ENDMOD        STRLEN

  -------         MODULE        STRSTR
  D:0008H         PUBLIC        ?_strstr?BYTE
  C:00B2H         PUBLIC        _strstr
  -------         ENDMOD        STRSTR

*** WARNING L16: UNCALLED SEGMENT, IGNORED FOR OVERLAY PROCESS
    SEGMENT: ?PR?_HAND?TEST1

*** WARNING L16: UNCALLED SEGMENT, IGNORED FOR OVERLAY PROCESS
    SEGMENT: ?PR?CLEAR_REC_DATA?TEST1

*** WARNING L16: UNCALLED SEGMENT, IGNORED FOR OVERLAY PROCESS
    SEGMENT: ?PR?_UART1SEND?TEST1

Program Size: data=59.0 xdata=0 code=667
LINK/LOCATE RUN COMPLETE.  3 WARNING(S),  0 ERROR(S)
