:03000000020026D5
:0C002600787FE4F6D8FD75813902006D8A
:1002230041544431383834363932303038383B0D64
:080233000A004154480D0A00C5
:10000300021F000019210000000000000000000092
:0F001300000000000000000000000000000000DE
:10025200758920758DFD758BFDD28EC29FD29ED27F
:060262009CD2AFD2AC22D9
:10023B0085170B85180C85190D1200B2E94A4B6016
:07024B00037F01227F002266
:1001FC007B007A00792112027EEFD3941940027FA2
:10020C0019E4FEEEC39F500974212EF8E4F60E801B
:06021C00F2E4F51FF520DD
:0102220022B9
:0300230002016E69
:0B016E00C0E0C0D075D000C000C0078A
:10017900AF99C29874212520F8A6070520E52070BB
:1001890002051FD39418E51F94004006751F0075DA
:02019900200044
:09019B00D007D000D0D0D0E03232
:080293008F993099FDC29922F8
:100268001201A46010F5993099FDC299740129F919
:06027800E43AFA80EB22DB
:040134008E1B8F1C73
:10013800E4F51DF51EC3E51E951CE51D951B502510
:10014800E4F583F582AF82AE83E4FCFD7BFF7AFFA2
:10015800F9F8D31201BD4003A380EA051EE51E701D
:05016800D4051D80D04C
:01016D00226F
:1001D300E4F51A1202527F0AFE120134D2947BFF15
:1001E3007A0279231202687F057E001201347BFFB5
:0901F3007A02793512026880FEDF
:100032000201D3E493A3F8E493A34003F68001F210
:1000420008DFF48029E493A3F85407240CC8C333CF
:10005200C4540F4420C8834004F456800146F6DF9E
:10006200E4800B0102040810204080900003E47E2B
:10007200019360BCA3FF543F30E509541FFEE49393
:10008200A360010ECF54C025E060A840B8E493A35A
:10009200FAE493A3F8E493A3C8C582C8CAC583CA85
:1000A200F0A3C8C582C8CAC583CADFE9DEE780BE3D
:0100220000DD
:1001A400BB010689828A83E0225002E722BBFE0259
:0901B400E32289828A83E493228C
:1001BD00EB9FF5F0EA9E42F0E99D42F0EC6480C8B9
:0601CD0064809845F02259
:10027E00E4FFFE1201A4600C0FEF70010E09E9708D
:05028E00F20A80EF22DE
:1000B2008B088A09890AAB0BAA0CA90D1201A4604C
:1000C20063AB08AA09A90A1201A4605F850B0E8519
:1000D2000C0F850D108B118A128913AB0EAA0FA972
:1000E200101201A4FF6023AB11AA12A9131201A4DA
:1000F2006F7017042510F510E4350FF50F74012504
:1001020013F513E43512F51280D1AB0EAA0FA91024
:100112001201A47002800D7401250AF50AE4350962
:10012200F509809DAB08AA09A90A227B007A007909
:020132000022A9
:00000001FF
