BL51 BANKED LINKER/LOCATER V6.22                                                        04/22/2015  23:05:05  PAGE 1


BL51 BANKED LINKER/LOCATER V6.22, INVOKED BY:
C:\KEIL\C51\BIN\BL51.EXE STARTUP.obj, test1.obj TO test1


MEMORY MODEL: SMALL


INPUT MODULES INCLUDED:
  STARTUP.obj (?C_STARTUP)
  test1.obj (TEST1)
  C:\KEIL\C51\LIB\C51S.LIB (?C_INIT)
  C:\KEIL\C51\LIB\C51S.LIB (?C?CLDPTR)
  C:\KEIL\C51\LIB\C51S.LIB (?C?SLCMP)
  C:\KEIL\C51\LIB\C51S.LIB (STRLEN)
  C:\KEIL\C51\LIB\C51S.LIB (STRSTR)


LINK MAP OF MODULE:  test1 (?C_STARTUP)


            TYPE    BASE      LENGTH    RELOCATION   SEGMENT NAME
            -----------------------------------------------------

            * * * * * * *   D A T A   M E M O R Y   * * * * * * *
            REG     0000H     0008H     ABSOLUTE     "REG BANK 0"
            DATA    0008H     000CH     UNIT         ?DT?_STRSTR?STRSTR
            DATA    0014H     0006H     UNIT         ?DT?_HAND?TEST1
            DATA    001AH     0005H     UNIT         _DATA_GROUP_
            DATA    001FH     0002H     UNIT         ?DT?TEST1
            IDATA   0021H     0019H     UNIT         ?ID?TEST1
            IDATA   003AH     0001H     UNIT         ?STACK

            * * * * * * *   C O D E   M E M O R Y   * * * * * * *
            CODE    0000H     0003H     ABSOLUTE     
            CODE    0003H     0020H     UNIT         ?C_INITSEG
            CODE    0023H     0003H     ABSOLUTE     
            CODE    0026H     008CH     UNIT         ?C_C51STARTUP
            CODE    00B2H     0082H     UNIT         ?PR?_STRSTR?STRSTR
            CODE    0134H     0060H     UNIT         ?CO?TEST1
            CODE    0194H     004EH     UNIT         ?PR?MAIN?TEST1
            CODE    01E2H     0043H     UNIT         ?PR?_DELAYSEC?TEST1
            CODE    0225H     0036H     UNIT         ?PR?SERIAL_INTERRUPT?TEST1
            CODE    025BH     002FH     UNIT         ?C?LIB_CODE
            CODE    028AH     0027H     UNIT         ?PR?CLEAR_REC_DATA?TEST1
            CODE    02B1H     0017H     UNIT         ?PR?_HAND?TEST1
            CODE    02C8H     0016H     UNIT         ?PR?SERIALINTI?TEST1
            CODE    02DEH     0016H     UNIT         ?PR?_UART1SENDS?TEST1
            CODE    02F4H     0015H     UNIT         ?PR?_STRLEN?STRLEN
            CODE    0309H     0008H     UNIT         ?PR?_UART1SEND?TEST1



OVERLAY MAP OF MODULE:   test1 (?C_STARTUP)


SEGMENT                              DATA_GROUP 
  +--> CALLED SEGMENT              START    LENGTH
--------------------------------------------------
BL51 BANKED LINKER/LOCATER V6.22                                                      04/22/2015  23:05:05  PAGE 2


?C_C51STARTUP                      -----    -----
  +--> ?PR?MAIN?TEST1
  +--> ?C_INITSEG

?PR?MAIN?TEST1                     001AH    0001H
  +--> ?PR?SERIALINTI?TEST1
  +--> ?PR?_DELAYSEC?TEST1
  +--> ?CO?TEST1
  +--> ?PR?_UART1SENDS?TEST1
  +--> ?PR?_UART1SEND?TEST1

?PR?_DELAYSEC?TEST1                001BH    0004H
  +--> ?PR?_UART1SENDS?TEST1



SYMBOL TABLE OF MODULE:  test1 (?C_STARTUP)

  VALUE           TYPE          NAME
  ----------------------------------

  -------         MODULE        ?C_STARTUP
  C:0026H         SEGMENT       ?C_C51STARTUP
  I:003AH         SEGMENT       ?STACK
  C:0000H         PUBLIC        ?C_STARTUP
  D:00E0H         SYMBOL        ACC
  D:00F0H         SYMBOL        B
  D:0083H         SYMBOL        DPH
  D:0082H         SYMBOL        DPL
  N:0000H         SYMBOL        IBPSTACK
  N:0100H         SYMBOL        IBPSTACKTOP
  N:0080H         SYMBOL        IDATALEN
  C:0029H         SYMBOL        IDATALOOP
  N:0000H         SYMBOL        PBPSTACK
  N:0100H         SYMBOL        PBPSTACKTOP
  N:0000H         SYMBOL        PDATALEN
  N:0000H         SYMBOL        PDATASTART
  N:0000H         SYMBOL        PPAGE
  N:0000H         SYMBOL        PPAGEENABLE
  D:00A0H         SYMBOL        PPAGE_SFR
  D:0081H         SYMBOL        SP
  C:0026H         SYMBOL        STARTUP1
  N:0000H         SYMBOL        XBPSTACK
  N:0000H         SYMBOL        XBPSTACKTOP
  N:0000H         SYMBOL        XDATALEN
  N:0000H         SYMBOL        XDATASTART
  C:0000H         LINE#         126
  C:0026H         LINE#         133
  C:0028H         LINE#         134
  C:0029H         LINE#         135
  C:002AH         LINE#         136
  C:002CH         LINE#         185
  C:002FH         LINE#         196
  -------         ENDMOD        ?C_STARTUP

  -------         MODULE        TEST1
  C:0000H         SYMBOL        _ICE_DUMMY_
BL51 BANKED LINKER/LOCATER V6.22                                                      04/22/2015  23:05:05  PAGE 3


  D:0090H         PUBLIC        P1
  B:00A8H.7       PUBLIC        EA
  I:0021H         PUBLIC        Buffer_Uart0_Rec
  C:01EBH         PUBLIC        _DelaySec
  B:00A8H.4       PUBLIC        ES
  B:0098H.0       PUBLIC        RI
  C:02B1H         PUBLIC        _hand
  B:0098H.1       PUBLIC        TI
  C:028AH         PUBLIC        clear_rec_data
  C:0194H         PUBLIC        main
  D:0099H         PUBLIC        SBUF
  B:0090H.4       PUBLIC        P14
  D:0089H         PUBLIC        TMOD
  C:0225H         PUBLIC        Serial_interrupt
  D:008DH         PUBLIC        TH1
  C:02DEH         PUBLIC        _Uart1Sends
  B:0098H.7       PUBLIC        SM0
  B:0098H.6       PUBLIC        SM1
  D:008BH         PUBLIC        TL1
  B:0088H.6       PUBLIC        TR1
  C:0309H         PUBLIC        _Uart1Send
  B:0098H.4       PUBLIC        REN
  D:001FH         PUBLIC        rec_data_len_uart
  C:02C8H         PUBLIC        SerialInti
  -------         PROC          SERIALINTI
  C:02C8H         LINE#         33
  C:02C8H         LINE#         34
  C:02C8H         LINE#         35
  C:02CBH         LINE#         41
  C:02CEH         LINE#         42
  C:02D1H         LINE#         45
  C:02D3H         LINE#         46
  C:02D5H         LINE#         47
  C:02D7H         LINE#         48
  C:02D9H         LINE#         49
  C:02DBH         LINE#         50
  C:02DDH         LINE#         51
  -------         ENDPROC       SERIALINTI
  -------         PROC          _HAND
  D:0001H         SYMBOL        data_source
  D:0017H         SYMBOL        ptr
  C:02B1H         LINE#         52
  C:02B1H         LINE#         53
  C:02B1H         LINE#         54
  C:02C2H         LINE#         55
  C:02C5H         LINE#         57
  C:02C7H         LINE#         58
  -------         ENDPROC       _HAND
  -------         PROC          CLEAR_REC_DATA
  -------         DO            
  D:0006H         SYMBOL        i
  D:0007H         SYMBOL        temp_len
  -------         ENDDO         
  C:028AH         LINE#         59
  C:028AH         LINE#         60
  C:028AH         LINE#         62
  C:0293H         LINE#         63
BL51 BANKED LINKER/LOCATER V6.22                                                      04/22/2015  23:05:05  PAGE 4


  C:0299H         LINE#         64
  C:0299H         LINE#         65
  C:029BH         LINE#         66
  C:029BH         LINE#         67
  C:02A2H         LINE#         68
  C:02A2H         LINE#         69
  C:02A8H         LINE#         70
  C:02ABH         LINE#         71
  C:02B0H         LINE#         72
  -------         ENDPROC       CLEAR_REC_DATA
  -------         PROC          SERIAL_INTERRUPT
  -------         DO            
  D:0007H         SYMBOL        temp_rec_data_uart0
  -------         ENDDO         
  C:0225H         LINE#         75
  C:0230H         LINE#         78
  C:0232H         LINE#         79
  C:0234H         LINE#         80
  C:023BH         LINE#         81
  C:0243H         LINE#         82
  C:024CH         LINE#         83
  C:024CH         LINE#         84
  C:0252H         LINE#         85
  C:0252H         LINE#         86
  -------         ENDPROC       SERIAL_INTERRUPT
  -------         PROC          _UART1SEND
  D:0007H         SYMBOL        c
  C:0309H         LINE#         87
  C:0309H         LINE#         88
  C:0309H         LINE#         89
  C:030BH         LINE#         90
  C:030EH         LINE#         91
  C:0310H         LINE#         92
  -------         ENDPROC       _UART1SEND
  -------         PROC          _UART1SENDS
  D:0001H         SYMBOL        str
  C:02DEH         LINE#         94
  C:02DEH         LINE#         95
  C:02DEH         LINE#         96
  C:02E3H         LINE#         97
  C:02E3H         LINE#         98
  C:02E5H         LINE#         99
  C:02E8H         LINE#         100
  C:02EAH         LINE#         101
  C:02F1H         LINE#         102
  C:02F3H         LINE#         103
  -------         ENDPROC       _UART1SENDS
  C:01E4H         SYMBOL        L?0034
  -------         PROC          L?0033
  -------         ENDPROC       L?0033
  C:01E4H         SYMBOL        L?0034
  -------         PROC          _DELAYSEC
  D:001BH         SYMBOL        sec
  -------         DO            
  D:001DH         SYMBOL        i
  D:0082H         SYMBOL        j
  -------         ENDDO         
BL51 BANKED LINKER/LOCATER V6.22                                                      04/22/2015  23:05:05  PAGE 5


  C:01EBH         LINE#         105
  C:01EFH         LINE#         106
  C:01EFH         LINE#         107
  C:01EFH         LINE#         108
  C:01FFH         LINE#         109
  C:01FFH         LINE#         110
  C:0217H         LINE#         111
  C:0217H         LINE#         112
  C:021AH         LINE#         113
  C:0224H         LINE#         114
  -------         ENDPROC       _DELAYSEC
  -------         PROC          MAIN
  -------         DO            
  D:001AH         SYMBOL        i
  -------         ENDDO         
  C:0194H         LINE#         115
  C:0194H         LINE#         116
  C:0194H         LINE#         117
  C:0197H         LINE#         118
  C:019AH         LINE#         119
  C:01A0H         LINE#         120
  C:01A2H         LINE#         122
  C:01A6H         LINE#         123
  C:01A9H         LINE#         124
  C:01ADH         LINE#         125
  C:01B0H         LINE#         126
  C:01B6H         LINE#         127
  C:01B9H         LINE#         128
  C:01BFH         LINE#         129
  C:01C2H         LINE#         130
  C:01C8H         LINE#         131
  C:01CBH         LINE#         132
  C:01D4H         LINE#         133
  C:01D9H         LINE#         134
  C:01E0H         LINE#         135
  -------         ENDPROC       MAIN
  -------         ENDMOD        TEST1

  -------         MODULE        ?C?CLDPTR
  C:025BH         PUBLIC        ?C?CLDPTR
  -------         ENDMOD        ?C?CLDPTR

  -------         MODULE        ?C?SLCMP
  C:0274H         PUBLIC        ?C?SLCMP
  -------         ENDMOD        ?C?SLCMP

  -------         MODULE        STRLEN
  C:02F4H         PUBLIC        _STRLEN
  -------         ENDMOD        STRLEN

  -------         MODULE        STRSTR
  D:0008H         PUBLIC        ?_strstr?BYTE
  C:00B2H         PUBLIC        _strstr
  -------         ENDMOD        STRSTR

*** WARNING L16: UNCALLED SEGMENT, IGNORED FOR OVERLAY PROCESS
    SEGMENT: ?PR?_HAND?TEST1
BL51 BANKED LINKER/LOCATER V6.22                                                      04/22/2015  23:05:05  PAGE 6



*** WARNING L16: UNCALLED SEGMENT, IGNORED FOR OVERLAY PROCESS
    SEGMENT: ?PR?CLEAR_REC_DATA?TEST1

Program Size: data=59.0 xdata=0 code=785
LINK/LOCATE RUN COMPLETE.  2 WARNING(S),  0 ERROR(S)
