:03000000020026D5
:0C002600787FE4F6D8FD75813902006D8A
:1001340041542B435343533D2247534D220D0A0050
:1001440041542B434D47463D310D0A0041542B4346
:100154005343413F0D0A0041542B43534D503D310D
:10016400372C3136372C302C3234300D0A004154C0
:100174002B434D47533D22313838343639323030F1
:100184003838220D0A0048454C4C4F203132330098
:10000300021F000019210000000000000000000092
:0F001300000000000000000000000000000000DE
:1002C800758920758DFD758BFDD28EC29FD29ED209
:0602D8009CD2AFD2AC2263
:1002B10085170B85180C85190D1200B2E94A4B60A0
:0702C100037F01227F0022F0
:10028A007B007A0079211202F4EFD3941940027F9D
:10029A0019E4FEEEC39F500974212EF8E4F60E808D
:0602AA00F2E4F51FF5204F
:0102B000222B
:03002300020225B1
:0B022500C0E0C0D075D000C000C007D2
:10023000AF99C29874212520F8A6070520E5207003
:1002400002051FD39418E51F94004006751F007522
:0202500020008C
:09025200D007D000D0D0D0E0327A
:080309008F993099FDC2992281
:1002DE0012025B6010F5993099FDC299740129F9EB
:0602EE00E43AFA80EB2265
:0901E2007BFF1202DE7F017E00AA
:0401EB008E1B8F1CBC
:1001EF00E4F51DF51EC3E51E951CE51D951B502559
:1001FF00E4F583F582AF82AE83E4FCFD7BFF7AFFEB
:10020F00F9F8D31202744003A380EA051EE51E70AD
:05021F00D4051D80D094
:0102240022B7
:10019400E4F51A1202C87F0AFE1201EBD2947A0126
:1001A40079341201E27A0179441201E27BFF7A0187
:1001B40079501201E47BFF7A01795B1201E47BFF41
:1001C4007A0179721201E47BFF7A01798A1202DEE4
:0E01D4007F1A1203097F0F7E001201EB80FEDE
:10003200020194E493A3F8E493A34003F68001F24F
:1000420008DFF48029E493A3F85407240CC8C333CF
:10005200C4540F4420C8834004F456800146F6DF9E
:10006200E4800B0102040810204080900003E47E2B
:10007200019360BCA3FF543F30E509541FFEE49393
:10008200A360010ECF54C025E060A840B8E493A35A
:10009200FAE493A3F8E493A3C8C582C8CAC583CA85
:1000A200F0A3C8C582C8CAC583CADFE9DEE780BE3D
:0100220000DD
:10025B00BB010689828A83E0225002E722BBFE02A1
:09026B00E32289828A83E49322D4
:10027400EB9FF5F0EA9E42F0E99D42F0EC6480C801
:0602840064809845F022A1
:1002F400E4FFFE12025B600C0FEF70010E09E9705F
:05030400F20A80EF2267
:1000B2008B088A09890AAB0BAA0CA90D12025B6094
:1000C20063AB08AA09A90A12025B605F850B0E8561
:1000D2000C0F850D108B118A128913AB0EAA0FA972
:1000E2001012025BFF6023AB11AA12A91312025B6A
:1000F2006F7017042510F510E4350FF50F74012504
:1001020013F513E43512F51280D1AB0EAA0FA91024
:1001120012025B7002800D7401250AF50AE43509AA
:10012200F509809DAB08AA09A90A227B007A007909
:020132000022A9
:00000001FF
