BL51 BANKED LINKER/LOCATER V6.22                                                        04/22/2015  23:11:33  PAGE 1


BL51 BANKED LINKER/LOCATER V6.22, INVOKED BY:
C:\KEIL\C51\BIN\BL51.EXE STARTUP.obj, test1.obj TO test1


MEMORY MODEL: SMALL


INPUT MODULES INCLUDED:
  STARTUP.obj (?C_STARTUP)
  test1.obj (TEST1)
  C:\KEIL\C51\LIB\C51S.LIB (?C_INIT)
  C:\KEIL\C51\LIB\C51S.LIB (?C?CLDPTR)
  C:\KEIL\C51\LIB\C51S.LIB (?C?SLCMP)
  C:\KEIL\C51\LIB\C51S.LIB (STRLEN)
  C:\KEIL\C51\LIB\C51S.LIB (STRSTR)


LINK MAP OF MODULE:  test1 (?C_STARTUP)


            TYPE    BASE      LENGTH    RELOCATION   SEGMENT NAME
            -----------------------------------------------------

            * * * * * * *   D A T A   M E M O R Y   * * * * * * *
            REG     0000H     0008H     ABSOLUTE     "REG BANK 0"
            DATA    0008H     000CH     UNIT         ?DT?_STRSTR?STRSTR
            DATA    0014H     0006H     UNIT         ?DT?_HAND?TEST1
            DATA    001AH     0005H     UNIT         _DATA_GROUP_
            DATA    001FH     0002H     UNIT         ?DT?TEST1
            IDATA   0021H     0019H     UNIT         ?ID?TEST1
            IDATA   003AH     0001H     UNIT         ?STACK

            * * * * * * *   C O D E   M E M O R Y   * * * * * * *
            CODE    0000H     0003H     ABSOLUTE     
            CODE    0003H     0020H     UNIT         ?C_INITSEG
            CODE    0023H     0003H     ABSOLUTE     
            CODE    0026H     0094H     UNIT         ?CO?TEST1
            CODE    00BAH     008CH     UNIT         ?C_C51STARTUP
            CODE    0146H     0082H     UNIT         ?PR?_STRSTR?STRSTR
            CODE    01C8H     004EH     UNIT         ?PR?MAIN?TEST1
            CODE    0216H     0043H     UNIT         ?PR?_DELAYSEC?TEST1
            CODE    0259H     0036H     UNIT         ?PR?SERIAL_INTERRUPT?TEST1
            CODE    028FH     002FH     UNIT         ?C?LIB_CODE
            CODE    02BEH     0027H     UNIT         ?PR?CLEAR_REC_DATA?TEST1
            CODE    02E5H     0017H     UNIT         ?PR?_HAND?TEST1
            CODE    02FCH     0016H     UNIT         ?PR?SERIALINTI?TEST1
            CODE    0312H     0016H     UNIT         ?PR?_UART1SENDS?TEST1
            CODE    0328H     0015H     UNIT         ?PR?_STRLEN?STRLEN
            CODE    033DH     0008H     UNIT         ?PR?_UART1SEND?TEST1



OVERLAY MAP OF MODULE:   test1 (?C_STARTUP)


SEGMENT                              DATA_GROUP 
  +--> CALLED SEGMENT              START    LENGTH
--------------------------------------------------
BL51 BANKED LINKER/LOCATER V6.22                                                      04/22/2015  23:11:33  PAGE 2


?C_C51STARTUP                      -----    -----
  +--> ?PR?MAIN?TEST1
  +--> ?C_INITSEG

?PR?MAIN?TEST1                     001AH    0001H
  +--> ?PR?SERIALINTI?TEST1
  +--> ?PR?_DELAYSEC?TEST1
  +--> ?CO?TEST1
  +--> ?PR?_UART1SENDS?TEST1
  +--> ?PR?_UART1SEND?TEST1

?PR?_DELAYSEC?TEST1                001BH    0004H
  +--> ?PR?_UART1SENDS?TEST1



SYMBOL TABLE OF MODULE:  test1 (?C_STARTUP)

  VALUE           TYPE          NAME
  ----------------------------------

  -------         MODULE        ?C_STARTUP
  C:00BAH         SEGMENT       ?C_C51STARTUP
  I:003AH         SEGMENT       ?STACK
  C:0000H         PUBLIC        ?C_STARTUP
  D:00E0H         SYMBOL        ACC
  D:00F0H         SYMBOL        B
  D:0083H         SYMBOL        DPH
  D:0082H         SYMBOL        DPL
  N:0000H         SYMBOL        IBPSTACK
  N:0100H         SYMBOL        IBPSTACKTOP
  N:0080H         SYMBOL        IDATALEN
  C:00BDH         SYMBOL        IDATALOOP
  N:0000H         SYMBOL        PBPSTACK
  N:0100H         SYMBOL        PBPSTACKTOP
  N:0000H         SYMBOL        PDATALEN
  N:0000H         SYMBOL        PDATASTART
  N:0000H         SYMBOL        PPAGE
  N:0000H         SYMBOL        PPAGEENABLE
  D:00A0H         SYMBOL        PPAGE_SFR
  D:0081H         SYMBOL        SP
  C:00BAH         SYMBOL        STARTUP1
  N:0000H         SYMBOL        XBPSTACK
  N:0000H         SYMBOL        XBPSTACKTOP
  N:0000H         SYMBOL        XDATALEN
  N:0000H         SYMBOL        XDATASTART
  C:0000H         LINE#         126
  C:00BAH         LINE#         133
  C:00BCH         LINE#         134
  C:00BDH         LINE#         135
  C:00BEH         LINE#         136
  C:00C0H         LINE#         185
  C:00C3H         LINE#         196
  -------         ENDMOD        ?C_STARTUP

  -------         MODULE        TEST1
  C:0000H         SYMBOL        _ICE_DUMMY_
BL51 BANKED LINKER/LOCATER V6.22                                                      04/22/2015  23:11:33  PAGE 3


  D:0090H         PUBLIC        P1
  B:00A8H.7       PUBLIC        EA
  I:0021H         PUBLIC        Buffer_Uart0_Rec
  C:021FH         PUBLIC        _DelaySec
  B:00A8H.4       PUBLIC        ES
  B:0098H.0       PUBLIC        RI
  C:02E5H         PUBLIC        _hand
  B:0098H.1       PUBLIC        TI
  C:02BEH         PUBLIC        clear_rec_data
  C:01C8H         PUBLIC        main
  D:0099H         PUBLIC        SBUF
  B:0090H.4       PUBLIC        P14
  D:0089H         PUBLIC        TMOD
  C:0259H         PUBLIC        Serial_interrupt
  D:008DH         PUBLIC        TH1
  C:0312H         PUBLIC        _Uart1Sends
  B:0098H.7       PUBLIC        SM0
  B:0098H.6       PUBLIC        SM1
  D:008BH         PUBLIC        TL1
  B:0088H.6       PUBLIC        TR1
  C:033DH         PUBLIC        _Uart1Send
  B:0098H.4       PUBLIC        REN
  D:001FH         PUBLIC        rec_data_len_uart
  C:02FCH         PUBLIC        SerialInti
  -------         PROC          SERIALINTI
  C:02FCH         LINE#         33
  C:02FCH         LINE#         34
  C:02FCH         LINE#         35
  C:02FFH         LINE#         41
  C:0302H         LINE#         42
  C:0305H         LINE#         45
  C:0307H         LINE#         46
  C:0309H         LINE#         47
  C:030BH         LINE#         48
  C:030DH         LINE#         49
  C:030FH         LINE#         50
  C:0311H         LINE#         51
  -------         ENDPROC       SERIALINTI
  -------         PROC          _HAND
  D:0001H         SYMBOL        data_source
  D:0017H         SYMBOL        ptr
  C:02E5H         LINE#         52
  C:02E5H         LINE#         53
  C:02E5H         LINE#         54
  C:02F6H         LINE#         55
  C:02F9H         LINE#         57
  C:02FBH         LINE#         58
  -------         ENDPROC       _HAND
  -------         PROC          CLEAR_REC_DATA
  -------         DO            
  D:0006H         SYMBOL        i
  D:0007H         SYMBOL        temp_len
  -------         ENDDO         
  C:02BEH         LINE#         59
  C:02BEH         LINE#         60
  C:02BEH         LINE#         62
  C:02C7H         LINE#         63
BL51 BANKED LINKER/LOCATER V6.22                                                      04/22/2015  23:11:33  PAGE 4


  C:02CDH         LINE#         64
  C:02CDH         LINE#         65
  C:02CFH         LINE#         66
  C:02CFH         LINE#         67
  C:02D6H         LINE#         68
  C:02D6H         LINE#         69
  C:02DCH         LINE#         70
  C:02DFH         LINE#         71
  C:02E4H         LINE#         72
  -------         ENDPROC       CLEAR_REC_DATA
  -------         PROC          SERIAL_INTERRUPT
  -------         DO            
  D:0007H         SYMBOL        temp_rec_data_uart0
  -------         ENDDO         
  C:0259H         LINE#         75
  C:0264H         LINE#         78
  C:0266H         LINE#         79
  C:0268H         LINE#         80
  C:026FH         LINE#         81
  C:0277H         LINE#         82
  C:0280H         LINE#         83
  C:0280H         LINE#         84
  C:0286H         LINE#         85
  C:0286H         LINE#         86
  -------         ENDPROC       SERIAL_INTERRUPT
  -------         PROC          _UART1SEND
  D:0007H         SYMBOL        c
  C:033DH         LINE#         87
  C:033DH         LINE#         88
  C:033DH         LINE#         89
  C:033FH         LINE#         90
  C:0342H         LINE#         91
  C:0344H         LINE#         92
  -------         ENDPROC       _UART1SEND
  -------         PROC          _UART1SENDS
  D:0001H         SYMBOL        str
  C:0312H         LINE#         94
  C:0312H         LINE#         95
  C:0312H         LINE#         96
  C:0317H         LINE#         97
  C:0317H         LINE#         98
  C:0319H         LINE#         99
  C:031CH         LINE#         100
  C:031EH         LINE#         101
  C:0325H         LINE#         102
  C:0327H         LINE#         103
  -------         ENDPROC       _UART1SENDS
  C:0218H         SYMBOL        L?0034
  -------         PROC          L?0033
  -------         ENDPROC       L?0033
  C:0218H         SYMBOL        L?0034
  -------         PROC          _DELAYSEC
  D:001BH         SYMBOL        sec
  -------         DO            
  D:001DH         SYMBOL        i
  D:0082H         SYMBOL        j
  -------         ENDDO         
BL51 BANKED LINKER/LOCATER V6.22                                                      04/22/2015  23:11:33  PAGE 5


  C:021FH         LINE#         105
  C:0223H         LINE#         106
  C:0223H         LINE#         107
  C:0223H         LINE#         108
  C:0233H         LINE#         109
  C:0233H         LINE#         110
  C:024BH         LINE#         111
  C:024BH         LINE#         112
  C:024EH         LINE#         113
  C:0258H         LINE#         114
  -------         ENDPROC       _DELAYSEC
  -------         PROC          MAIN
  -------         DO            
  D:001AH         SYMBOL        i
  -------         ENDDO         
  C:01C8H         LINE#         115
  C:01C8H         LINE#         116
  C:01C8H         LINE#         117
  C:01CBH         LINE#         118
  C:01CEH         LINE#         119
  C:01D4H         LINE#         120
  C:01D6H         LINE#         122
  C:01DAH         LINE#         123
  C:01DDH         LINE#         124
  C:01E1H         LINE#         125
  C:01E4H         LINE#         126
  C:01EAH         LINE#         127
  C:01EDH         LINE#         128
  C:01F3H         LINE#         129
  C:01F6H         LINE#         130
  C:01FCH         LINE#         133
  C:01FFH         LINE#         134
  C:0208H         LINE#         135
  C:020DH         LINE#         136
  C:0214H         LINE#         137
  -------         ENDPROC       MAIN
  -------         ENDMOD        TEST1

  -------         MODULE        ?C?CLDPTR
  C:028FH         PUBLIC        ?C?CLDPTR
  -------         ENDMOD        ?C?CLDPTR

  -------         MODULE        ?C?SLCMP
  C:02A8H         PUBLIC        ?C?SLCMP
  -------         ENDMOD        ?C?SLCMP

  -------         MODULE        STRLEN
  C:0328H         PUBLIC        _STRLEN
  -------         ENDMOD        STRLEN

  -------         MODULE        STRSTR
  D:0008H         PUBLIC        ?_strstr?BYTE
  C:0146H         PUBLIC        _strstr
  -------         ENDMOD        STRSTR

*** WARNING L16: UNCALLED SEGMENT, IGNORED FOR OVERLAY PROCESS
    SEGMENT: ?PR?_HAND?TEST1
BL51 BANKED LINKER/LOCATER V6.22                                                      04/22/2015  23:11:33  PAGE 6



*** WARNING L16: UNCALLED SEGMENT, IGNORED FOR OVERLAY PROCESS
    SEGMENT: ?PR?CLEAR_REC_DATA?TEST1

Program Size: data=59.0 xdata=0 code=837
LINK/LOCATE RUN COMPLETE.  2 WARNING(S),  0 ERROR(S)
