:030000000200BA41
:0C00BA00787FE4F6D8FD75813902010161
:1000260041542B435343533D2255435332220D0A29
:100036000041542B434D47463D310D0A0041542B98
:10004600435343413F0D0A0041542B43534D503D0A
:1000560031372C3136372C302C32350D0A004154CD
:100066002B434D47533D2230303331303033383017
:100076003033383030333430303336303033393053
:100086003033323030333030303330303033383054
:10009600303338220D0A003446363035393744308D
:1000A60030363830303635303036433030364330FF
:0400B600303646009A
:10000300021F000019210000000000000000000092
:0F001300000000000000000000000000000000DE
:1002FC00758920758DFD758BFDD28EC29FD29ED2D5
:06030C009CD2AFD2AC222E
:1002E50085170B85180C85190D120146E94A4B60D7
:0702F500037F01227F0022BC
:1002BE007B007A007921120328EFD3941940027F34
:1002CE0019E4FEEEC39F500974212EF8E4F60E8059
:0602DE00F2E4F51FF5201B
:0102E40022F7
:030023000202597D
:0B025900C0E0C0D075D000C000C0079E
:10026400AF99C29874212520F8A6070520E52070CF
:1002740002051FD39418E51F94004006751F0075EE
:02028400200058
:09028600D007D000D0D0D0E03246
:08033D008F993099FDC299224D
:1003120012028F6010F5993099FDC299740129F982
:06032200E43AFA80EB2230
:090216007BFF1203127F017E0040
:04021F008E1B8F1C87
:10022300E4F51DF51EC3E51E951CE51D951B502524
:10023300E4F583F582AF82AE83E4FCFD7BFF7AFFB6
:10024300F9F8D31202A84003A380EA051EE51E7045
:05025300D4051D80D060
:010258002283
:1001C800E4F51A1202FC7F0AFE12021FD2947A008A
:1001D80079261202167A0079371202167BFF7A0006
:1001E80079431202187BFF7A00794E1202187BFFBE
:1001F8007A0079641202187BFF7A00799D12031243
:0E0208007F1A12033D7F0F7E0012021F80FE40
:1000C6000201C8E493A3F8E493A34003F68001F287
:1000D60008DFF48029E493A3F85407240CC8C3333B
:1000E600C4540F4420C8834004F456800146F6DF0A
:1000F600E4800B0102040810204080900003E47E97
:10010600019360BCA3FF543F30E509541FFEE493FE
:10011600A360010ECF54C025E060A840B8E493A3C5
:10012600FAE493A3F8E493A3C8C582C8CAC583CAF0
:10013600F0A3C8C582C8CAC583CADFE9DEE780BEA8
:0100220000DD
:10028F00BB010689828A83E0225002E722BBFE026D
:09029F00E32289828A83E49322A0
:1002A800EB9FF5F0EA9E42F0E99D42F0EC6480C8CD
:0602B80064809845F0226D
:10032800E4FFFE12028F600C0FEF70010E09E970F6
:05033800F20A80EF2233
:100146008B088A09890AAB0BAA0CA90D12028F60CB
:1001560063AB08AA09A90A12028F605F850B0E8598
:100166000C0F850D108B118A128913AB0EAA0FA9DD
:100176001012028FFF6023AB11AA12A91312028F6D
:100186006F7017042510F510E4350FF50F7401256F
:1001960013F513E43512F51280D1AB0EAA0FA91090
:1001A60012028F7002800D7401250AF50AE43509E2
:1001B600F509809DAB08AA09A90A227B007A007975
:0201C600002215
:00000001FF
